{
  "contractName": "GradeChain",
  "abi": [
    {
      "constant": true,
      "inputs": [],
      "name": "owner",
      "outputs": [
        {
          "name": "",
          "type": "address"
        }
      ],
      "payable": false,
      "stateMutability": "view",
      "type": "function",
      "signature": "0x8da5cb5b"
    },
    {
      "constant": true,
      "inputs": [],
      "name": "isOwner",
      "outputs": [
        {
          "name": "",
          "type": "bool"
        }
      ],
      "payable": false,
      "stateMutability": "view",
      "type": "function",
      "signature": "0x8f32d59b"
    },
    {
      "constant": false,
      "inputs": [
        {
          "name": "newOwner",
          "type": "address"
        }
      ],
      "name": "transferOwnership",
      "outputs": [],
      "payable": false,
      "stateMutability": "nonpayable",
      "type": "function",
      "signature": "0xf2fde38b"
    },
    {
      "anonymous": false,
      "inputs": [
        {
          "indexed": false,
          "name": "blockNumber",
          "type": "uint256"
        },
        {
          "indexed": false,
          "name": "id",
          "type": "uint256"
        },
        {
          "indexed": false,
          "name": "name",
          "type": "string"
        }
      ],
      "name": "AddCourse",
      "type": "event",
      "signature": "0x5763ea70ca45c35c4564b913133417362561e7383fc355c707aad819c2dbd8bc"
    },
    {
      "anonymous": false,
      "inputs": [
        {
          "indexed": false,
          "name": "blockNumber",
          "type": "uint256"
        },
        {
          "indexed": false,
          "name": "id",
          "type": "uint256"
        },
        {
          "indexed": false,
          "name": "firstName",
          "type": "string"
        },
        {
          "indexed": false,
          "name": "lastName",
          "type": "string"
        },
        {
          "indexed": false,
          "name": "career",
          "type": "string"
        },
        {
          "indexed": false,
          "name": "birthDate",
          "type": "string"
        }
      ],
      "name": "AddStudent",
      "type": "event",
      "signature": "0x7d20c1d57e3fae80fdfed53de91c313be9cbd44ad3c2aafa25815d1ef890bf28"
    },
    {
      "anonymous": false,
      "inputs": [
        {
          "indexed": false,
          "name": "blockNumber",
          "type": "uint256"
        },
        {
          "indexed": false,
          "name": "studentId",
          "type": "uint256"
        },
        {
          "indexed": false,
          "name": "courseId",
          "type": "uint256"
        },
        {
          "indexed": false,
          "name": "grade",
          "type": "uint256"
        }
      ],
      "name": "AddGrade",
      "type": "event",
      "signature": "0x0b25a6950f1b1571a0631115fece2701a1639a068dd43852b52a26af53323893"
    },
    {
      "anonymous": false,
      "inputs": [
        {
          "indexed": true,
          "name": "previousOwner",
          "type": "address"
        },
        {
          "indexed": true,
          "name": "newOwner",
          "type": "address"
        }
      ],
      "name": "OwnershipTransferred",
      "type": "event",
      "signature": "0x8be0079c531659141344cd1fd0a4f28419497f9722a3daafe3b4186f6b6457e0"
    },
    {
      "constant": false,
      "inputs": [
        {
          "name": "id",
          "type": "uint256"
        },
        {
          "name": "name",
          "type": "string"
        }
      ],
      "name": "addCourse",
      "outputs": [],
      "payable": false,
      "stateMutability": "nonpayable",
      "type": "function",
      "signature": "0x32698a09"
    },
    {
      "constant": false,
      "inputs": [
        {
          "name": "id",
          "type": "uint256"
        },
        {
          "name": "firstName",
          "type": "string"
        },
        {
          "name": "lastName",
          "type": "string"
        },
        {
          "name": "career",
          "type": "string"
        },
        {
          "name": "birthDate",
          "type": "string"
        }
      ],
      "name": "addStudent",
      "outputs": [],
      "payable": false,
      "stateMutability": "nonpayable",
      "type": "function",
      "signature": "0x1682a367"
    },
    {
      "constant": false,
      "inputs": [
        {
          "name": "studentId",
          "type": "uint256"
        },
        {
          "name": "courseId",
          "type": "uint256"
        },
        {
          "name": "courseGrade",
          "type": "uint256"
        }
      ],
      "name": "addGrade",
      "outputs": [],
      "payable": false,
      "stateMutability": "nonpayable",
      "type": "function",
      "signature": "0x7cc2cd95"
    },
    {
      "constant": true,
      "inputs": [
        {
          "name": "id",
          "type": "uint256"
        }
      ],
      "name": "getStudentById",
      "outputs": [
        {
          "name": "",
          "type": "uint256"
        },
        {
          "name": "",
          "type": "uint256"
        },
        {
          "name": "",
          "type": "string"
        },
        {
          "name": "",
          "type": "string"
        },
        {
          "name": "",
          "type": "string"
        },
        {
          "name": "",
          "type": "string"
        }
      ],
      "payable": false,
      "stateMutability": "view",
      "type": "function",
      "signature": "0xc8fb0793"
    },
    {
      "constant": true,
      "inputs": [
        {
          "name": "position",
          "type": "uint256"
        }
      ],
      "name": "getStudentByPosition",
      "outputs": [
        {
          "name": "",
          "type": "uint256"
        },
        {
          "name": "",
          "type": "uint256"
        },
        {
          "name": "",
          "type": "string"
        },
        {
          "name": "",
          "type": "string"
        },
        {
          "name": "",
          "type": "string"
        },
        {
          "name": "",
          "type": "string"
        }
      ],
      "payable": false,
      "stateMutability": "view",
      "type": "function",
      "signature": "0x19ba3311"
    },
    {
      "constant": true,
      "inputs": [
        {
          "name": "id",
          "type": "uint256"
        }
      ],
      "name": "getCourseById",
      "outputs": [
        {
          "name": "",
          "type": "uint256"
        },
        {
          "name": "",
          "type": "uint256"
        },
        {
          "name": "",
          "type": "string"
        }
      ],
      "payable": false,
      "stateMutability": "view",
      "type": "function",
      "signature": "0xea5b210f"
    },
    {
      "constant": true,
      "inputs": [
        {
          "name": "position",
          "type": "uint256"
        }
      ],
      "name": "getCourseByPosition",
      "outputs": [
        {
          "name": "",
          "type": "uint256"
        },
        {
          "name": "",
          "type": "uint256"
        },
        {
          "name": "",
          "type": "string"
        }
      ],
      "payable": false,
      "stateMutability": "view",
      "type": "function",
      "signature": "0x1d97b30c"
    },
    {
      "constant": true,
      "inputs": [
        {
          "name": "studentId",
          "type": "uint256"
        }
      ],
      "name": "getStudentGradesById",
      "outputs": [
        {
          "name": "blockNumbers",
          "type": "uint256[]"
        },
        {
          "name": "course",
          "type": "uint256[]"
        },
        {
          "name": "grade",
          "type": "uint256[]"
        }
      ],
      "payable": false,
      "stateMutability": "view",
      "type": "function",
      "signature": "0x748aa14f"
    },
    {
      "constant": true,
      "inputs": [],
      "name": "getStudentsLength",
      "outputs": [
        {
          "name": "",
          "type": "uint256"
        }
      ],
      "payable": false,
      "stateMutability": "view",
      "type": "function",
      "signature": "0xb807be38"
    },
    {
      "constant": true,
      "inputs": [],
      "name": "getCoursesLength",
      "outputs": [
        {
          "name": "",
          "type": "uint256"
        }
      ],
      "payable": false,
      "stateMutability": "view",
      "type": "function",
      "signature": "0x335eb60f"
    }
  ],
  "bytecode": "0x6080604052336000806101000a81548173ffffffffffffffffffffffffffffffffffffffff021916908373ffffffffffffffffffffffffffffffffffffffff1602179055506000809054906101000a900473ffffffffffffffffffffffffffffffffffffffff1673ffffffffffffffffffffffffffffffffffffffff16600073ffffffffffffffffffffffffffffffffffffffff167f8be0079c531659141344cd1fd0a4f28419497f9722a3daafe3b4186f6b6457e060405160405180910390a3612487806100cf6000396000f3006080604052600436106100c5576000357c0100000000000000000000000000000000000000000000000000000000900463ffffffff1680631682a367146100ca57806319ba33111461020f5780631d97b30c1461040757806332698a09146104bb578063335eb60f1461052e578063748aa14f146105595780637cc2cd951461066b5780638da5cb5b146106ac5780638f32d59b14610703578063b807be3814610732578063c8fb07931461075d578063ea5b210f14610955578063f2fde38b14610a09575b600080fd5b3480156100d657600080fd5b5061020d60048036038101908080359060200190929190803590602001908201803590602001908080601f0160208091040260200160405190810160405280939291908181526020018383808284378201915050505050509192919290803590602001908201803590602001908080601f0160208091040260200160405190810160405280939291908181526020018383808284378201915050505050509192919290803590602001908201803590602001908080601f0160208091040260200160405190810160405280939291908181526020018383808284378201915050505050509192919290803590602001908201803590602001908080601f0160208091040260200160405190810160405280939291908181526020018383808284378201915050505050509192919290505050610a4c565b005b34801561021b57600080fd5b5061023a600480360381019080803590602001909291905050506111a2565b6040518087815260200186815260200180602001806020018060200180602001858103855289818151815260200191508051906020019080838360005b83811015610292578082015181840152602081019050610277565b50505050905090810190601f1680156102bf5780820380516001836020036101000a031916815260200191505b50858103845288818151815260200191508051906020019080838360005b838110156102f85780820151818401526020810190506102dd565b50505050905090810190601f1680156103255780820380516001836020036101000a031916815260200191505b50858103835287818151815260200191508051906020019080838360005b8381101561035e578082015181840152602081019050610343565b50505050905090810190601f16801561038b5780820380516001836020036101000a031916815260200191505b50858103825286818151815260200191508051906020019080838360005b838110156103c45780820151818401526020810190506103a9565b50505050905090810190601f1680156103f15780820380516001836020036101000a031916815260200191505b509a505050505050505050505060405180910390f35b34801561041357600080fd5b5061043260048036038101908080359060200190929190505050611538565b6040518084815260200183815260200180602001828103825283818151815260200191508051906020019080838360005b8381101561047e578082015181840152602081019050610463565b50505050905090810190601f1680156104ab5780820380516001836020036101000a031916815260200191505b5094505050505060405180910390f35b3480156104c757600080fd5b5061052c60048036038101908080359060200190929190803590602001908201803590602001908080601f016020809104026020016040519081016040528093929190818152602001838380828437820191505050505050919291929050505061166c565b005b34801561053a57600080fd5b5061054361190a565b6040518082815260200191505060405180910390f35b34801561056557600080fd5b5061058460048036038101908080359060200190929190505050611917565b60405180806020018060200180602001848103845287818151815260200191508051906020019060200280838360005b838110156105cf5780820151818401526020810190506105b4565b50505050905001848103835286818151815260200191508051906020019060200280838360005b838110156106115780820151818401526020810190506105f6565b50505050905001848103825285818151815260200191508051906020019060200280838360005b83811015610653578082015181840152602081019050610638565b50505050905001965050505050505060405180910390f35b34801561067757600080fd5b506106aa600480360381019080803590602001909291908035906020019092919080359060200190929190505050611aaf565b005b3480156106b857600080fd5b506106c1611cf9565b604051808273ffffffffffffffffffffffffffffffffffffffff1673ffffffffffffffffffffffffffffffffffffffff16815260200191505060405180910390f35b34801561070f57600080fd5b50610718611d22565b604051808215151515815260200191505060405180910390f35b34801561073e57600080fd5b50610747611d79565b6040518082815260200191505060405180910390f35b34801561076957600080fd5b5061078860048036038101908080359060200190929190505050611d86565b6040518087815260200186815260200180602001806020018060200180602001858103855289818151815260200191508051906020019080838360005b838110156107e05780820151818401526020810190506107c5565b50505050905090810190601f16801561080d5780820380516001836020036101000a031916815260200191505b50858103845288818151815260200191508051906020019080838360005b8381101561084657808201518184015260208101905061082b565b50505050905090810190601f1680156108735780820380516001836020036101000a031916815260200191505b50858103835287818151815260200191508051906020019080838360005b838110156108ac578082015181840152602081019050610891565b50505050905090810190601f1680156108d95780820380516001836020036101000a031916815260200191505b50858103825286818151815260200191508051906020019080838360005b838110156109125780820151818401526020810190506108f7565b50505050905090810190601f16801561093f5780820380516001836020036101000a031916815260200191505b509a505050505050505050505060405180910390f35b34801561096157600080fd5b50610980600480360381019080803590602001909291905050506120ec565b6040518084815260200183815260200180602001828103825283818151815260200191508051906020019080838360005b838110156109cc5780820151818401526020810190506109b1565b50505050905090810190601f1680156109f95780820380516001836020036101000a031916815260200191505b5094505050505060405180910390f35b348015610a1557600080fd5b50610a4a600480360381019080803573ffffffffffffffffffffffffffffffffffffffff1690602001909291905050506121f0565b005b6000610a56612309565b610a5e612309565b610a66611d22565b1515610a7157600080fd5b4392506002600089815260200190815260200160002060e060405190810160405290816000820154815260200160018201548152602001600282018054600181600116156101000203166002900480601f016020809104026020016040519081016040528092919081815260200182805460018160011615610100020316600290048015610b405780601f10610b1557610100808354040283529160200191610b40565b820191906000526020600020905b815481529060010190602001808311610b2357829003601f168201915b50505050508152602001600382018054600181600116156101000203166002900480601f016020809104026020016040519081016040528092919081815260200182805460018160011615610100020316600290048015610be25780601f10610bb757610100808354040283529160200191610be2565b820191906000526020600020905b815481529060010190602001808311610bc557829003601f168201915b50505050508152602001600482018054600181600116156101000203166002900480601f016020809104026020016040519081016040528092919081815260200182805460018160011615610100020316600290048015610c845780601f10610c5957610100808354040283529160200191610c84565b820191906000526020600020905b815481529060010190602001808311610c6757829003601f168201915b50505050508152602001600582018054600181600116156101000203166002900480601f016020809104026020016040519081016040528092919081815260200182805460018160011615610100020316600290048015610d265780601f10610cfb57610100808354040283529160200191610d26565b820191906000526020600020905b815481529060010190602001808311610d0957829003601f168201915b5050505050815260200160068201805480602002602001604051908101604052809291908181526020018280548015610d7e57602002820191906000526020600020905b815481526020019060010190808311610d6a575b505050505081525050915060008260200151148015610da257506000826040015151145b1515610dad57600080fd5b60e0604051908101604052808481526020018981526020018881526020018781526020018681526020018581526020016000604051908082528060200260200182016040528015610e0d5781602001602082028038833980820191505090505b50815250905080600260008a815260200190815260200160002060008201518160000155602082015181600101556040820151816002019080519060200190610e57929190612347565b506060820151816003019080519060200190610e74929190612347565b506080820151816004019080519060200190610e91929190612347565b5060a0820151816005019080519060200190610eae929190612347565b5060c0820151816006019080519060200190610ecb9291906123c7565b509050506001819080600181540180825580915050906001820390600052602060002090600902016000909192909190915060008201518160000155602082015181600101556040820151816002019080519060200190610f2d929190612347565b506060820151816003019080519060200190610f4a929190612347565b506080820151816004019080519060200190610f67929190612347565b5060a0820151816005019080519060200190610f84929190612347565b5060c0820151816006019080519060200190610fa19291906123c7565b505050507f7d20c1d57e3fae80fdfed53de91c313be9cbd44ad3c2aafa25815d1ef890bf288389898989896040518087815260200186815260200180602001806020018060200180602001858103855289818151815260200191508051906020019080838360005b83811015611024578082015181840152602081019050611009565b50505050905090810190601f1680156110515780820380516001836020036101000a031916815260200191505b50858103845288818151815260200191508051906020019080838360005b8381101561108a57808201518184015260208101905061106f565b50505050905090810190601f1680156110b75780820380516001836020036101000a031916815260200191505b50858103835287818151815260200191508051906020019080838360005b838110156110f05780820151818401526020810190506110d5565b50505050905090810190601f16801561111d5780820380516001836020036101000a031916815260200191505b50858103825286818151815260200191508051906020019080838360005b8381101561115657808201518184015260208101905061113b565b50505050905090810190601f1680156111835780820380516001836020036101000a031916815260200191505b509a505050505050505050505060405180910390a15050505050505050565b60008060608060608060006111b5612309565b6001805490509150600089101580156111cd57508189105b15156111d857600080fd5b6001898154811015156111e757fe5b906000526020600020906009020160e060405190810160405290816000820154815260200160018201548152602001600282018054600181600116156101000203166002900480601f0160208091040260200160405190810160405280929190818152602001828054600181600116156101000203166002900480156112ae5780601f10611283576101008083540402835291602001916112ae565b820191906000526020600020905b81548152906001019060200180831161129157829003601f168201915b50505050508152602001600382018054600181600116156101000203166002900480601f0160208091040260200160405190810160405280929190818152602001828054600181600116156101000203166002900480156113505780601f1061132557610100808354040283529160200191611350565b820191906000526020600020905b81548152906001019060200180831161133357829003601f168201915b50505050508152602001600482018054600181600116156101000203166002900480601f0160208091040260200160405190810160405280929190818152602001828054600181600116156101000203166002900480156113f25780601f106113c7576101008083540402835291602001916113f2565b820191906000526020600020905b8154815290600101906020018083116113d557829003601f168201915b50505050508152602001600582018054600181600116156101000203166002900480601f0160208091040260200160405190810160405280929190818152602001828054600181600116156101000203166002900480156114945780601f1061146957610100808354040283529160200191611494565b820191906000526020600020905b81548152906001019060200180831161147757829003601f168201915b50505050508152602001600682018054806020026020016040519081016040528092919081815260200182805480156114ec57602002820191906000526020600020905b8154815260200190600101908083116114d8575b5050505050815250509050806000015181602001518260400151836060015184608001518560a00151839350829250819150809050975097509750975097509750505091939550919395565b60008060606000611547612414565b60038054905091506000861015801561155f57508186105b151561156a57600080fd5b60038681548110151561157957fe5b9060005260206000209060030201606060405190810160405290816000820154815260200160018201548152602001600282018054600181600116156101000203166002900480601f0160208091040260200160405190810160405280929190818152602001828054600181600116156101000203166002900480156116405780601f1061161557610100808354040283529160200191611640565b820191906000526020600020905b81548152906001019060200180831161162357829003601f168201915b505050505081525050905080600001518160200151826040015180905094509450945050509193909250565b6000611676612414565b61167e612414565b611686611d22565b151561169157600080fd5b43925060046000868152602001908152602001600020606060405190810160405290816000820154815260200160018201548152602001600282018054600181600116156101000203166002900480601f0160208091040260200160405190810160405280929190818152602001828054600181600116156101000203166002900480156117605780601f1061173557610100808354040283529160200191611760565b820191906000526020600020905b81548152906001019060200180831161174357829003601f168201915b50505050508152505091506000826020015114801561178457506000826040015151145b151561178f57600080fd5b6060604051908101604052808481526020018681526020018581525090508060046000878152602001908152602001600020600082015181600001556020820151816001015560408201518160020190805190602001906117f1929190612347565b509050506003819080600181540180825580915050906001820390600052602060002090600302016000909192909190915060008201518160000155602082015181600101556040820151816002019080519060200190611853929190612347565b505050507f5763ea70ca45c35c4564b913133417362561e7383fc355c707aad819c2dbd8bc8386866040518084815260200183815260200180602001828103825283818151815260200191508051906020019080838360005b838110156118c75780820151818401526020810190506118ac565b50505050905090810190601f1680156118f45780820380516001836020036101000a031916815260200191505b5094505050505060405180910390a15050505050565b6000600380549050905090565b6060806060600080600080600260008981526020019081526020016000209350600084600101541415151561194b57600080fd5b83600601805490509250826040519080825280602002602001820160405280156119845781602001602082028038833980820191505090505b509650826040519080825280602002602001820160405280156119b65781602001602082028038833980820191505090505b509550826040519080825280602002602001820160405280156119e85781602001602082028038833980820191505090505b509450600091505b82821015611aa4578360060182815481101515611a0957fe5b90600052602060002001549050836008016000828152602001908152602001600020548783815181101515611a3a57fe5b9060200190602002018181525050808683815181101515611a5757fe5b9060200190602002018181525050836007016000828152602001908152602001600020548583815181101515611a8957fe5b906020019060200201818152505081806001019250506119f0565b505050509193909250565b6000611ab9612414565b6000611ac3611d22565b1515611ace57600080fd5b6002600087815260200190815260200160002092506000836001015414158015611b11575060008360020180546001816001161561010002031660029004905014155b1515611b1c57600080fd5b60046000868152602001908152602001600020606060405190810160405290816000820154815260200160018201548152602001600282018054600181600116156101000203166002900480601f016020809104026020016040519081016040528092919081815260200182805460018160011615610100020316600290048015611be85780601f10611bbd57610100808354040283529160200191611be8565b820191906000526020600020905b815481529060010190602001808311611bcb57829003601f168201915b50505050508152505091506000826020015114158015611c0e5750600082604001515114155b1515611c1957600080fd5b826007016000868152602001908152602001600020549050600081141515611c4057600080fd5b82600601859080600181540180825580915050906001820390600052602060002001600090919290919091505550838360070160008781526020019081526020016000208190555043836008016000878152602001908152602001600020819055507f0b25a6950f1b1571a0631115fece2701a1639a068dd43852b52a26af53323893438787876040518085815260200184815260200183815260200182815260200194505050505060405180910390a1505050505050565b60008060009054906101000a900473ffffffffffffffffffffffffffffffffffffffff16905090565b60008060009054906101000a900473ffffffffffffffffffffffffffffffffffffffff1673ffffffffffffffffffffffffffffffffffffffff163373ffffffffffffffffffffffffffffffffffffffff1614905090565b6000600180549050905090565b600080606080606080611d97612309565b6002600089815260200190815260200160002060e060405190810160405290816000820154815260200160018201548152602001600282018054600181600116156101000203166002900480601f016020809104026020016040519081016040528092919081815260200182805460018160011615610100020316600290048015611e635780601f10611e3857610100808354040283529160200191611e63565b820191906000526020600020905b815481529060010190602001808311611e4657829003601f168201915b50505050508152602001600382018054600181600116156101000203166002900480601f016020809104026020016040519081016040528092919081815260200182805460018160011615610100020316600290048015611f055780601f10611eda57610100808354040283529160200191611f05565b820191906000526020600020905b815481529060010190602001808311611ee857829003601f168201915b50505050508152602001600482018054600181600116156101000203166002900480601f016020809104026020016040519081016040528092919081815260200182805460018160011615610100020316600290048015611fa75780601f10611f7c57610100808354040283529160200191611fa7565b820191906000526020600020905b815481529060010190602001808311611f8a57829003601f168201915b50505050508152602001600582018054600181600116156101000203166002900480601f0160208091040260200160405190810160405280929190818152602001828054600181600116156101000203166002900480156120495780601f1061201e57610100808354040283529160200191612049565b820191906000526020600020905b81548152906001019060200180831161202c57829003601f168201915b50505050508152602001600682018054806020026020016040519081016040528092919081815260200182805480156120a157602002820191906000526020600020905b81548152602001906001019080831161208d575b5050505050815250509050806000015181602001518260400151836060015184608001518560a001518393508292508191508090509650965096509650965096505091939550919395565b60008060606120f9612414565b60046000868152602001908152602001600020606060405190810160405290816000820154815260200160018201548152602001600282018054600181600116156101000203166002900480601f0160208091040260200160405190810160405280929190818152602001828054600181600116156101000203166002900480156121c55780601f1061219a576101008083540402835291602001916121c5565b820191906000526020600020905b8154815290600101906020018083116121a857829003601f168201915b5050505050815250509050806000015181602001518260400151809050935093509350509193909250565b6121f8611d22565b151561220357600080fd5b61220c8161220f565b50565b600073ffffffffffffffffffffffffffffffffffffffff168173ffffffffffffffffffffffffffffffffffffffff161415151561224b57600080fd5b8073ffffffffffffffffffffffffffffffffffffffff166000809054906101000a900473ffffffffffffffffffffffffffffffffffffffff1673ffffffffffffffffffffffffffffffffffffffff167f8be0079c531659141344cd1fd0a4f28419497f9722a3daafe3b4186f6b6457e060405160405180910390a3806000806101000a81548173ffffffffffffffffffffffffffffffffffffffff021916908373ffffffffffffffffffffffffffffffffffffffff16021790555050565b60e060405190810160405280600081526020016000815260200160608152602001606081526020016060815260200160608152602001606081525090565b828054600181600116156101000203166002900490600052602060002090601f016020900481019282601f1061238857805160ff19168380011785556123b6565b828001600101855582156123b6579182015b828111156123b557825182559160200191906001019061239a565b5b5090506123c39190612436565b5090565b828054828255906000526020600020908101928215612403579160200282015b828111156124025782518255916020019190600101906123e7565b5b5090506124109190612436565b5090565b6060604051908101604052806000815260200160008152602001606081525090565b61245891905b8082111561245457600081600090555060010161243c565b5090565b905600a165627a7a72305820f32c2df5da900f866efe4404bcac5783606a13eaab7c35bcc15ba5f2add3b4310029",
  "source": "pragma solidity ^0.4.25;\n\nimport \"./Ownable.sol\";\n\n/**\n* @title GradeChain\n* @dev The GradeChain contract can manage data .\n*/\ncontract GradeChain is Ownable{\n  //Structs\n  struct Course{\n    uint blockNumber;\n    uint id;\n    string name;\n  }\n\n  struct Student {\n    uint blockNumber;\n    uint id;\n    string firstName;\n    string lastName;\n    string career;\n    string birthDate;\n\n    uint[] CoursesList;\n    mapping (uint => uint) Grades;\n    mapping (uint => uint) BlockNumbers;\n  }\n\n  //Variables\n  Student[] private StudentsList;\n\n  mapping (uint => Student) private Students;\n\n  Course[] private CoursesList;\n\n  //Mappings\n  mapping (uint => Course) private Courses;\n\n\n  //Events\n  event AddCourse(uint blockNumber, uint id, string name);\n\n  event AddStudent(uint blockNumber, uint id, string firstName, string lastName, string career, string birthDate);\n\n  event AddGrade(uint blockNumber, uint studentId, uint courseId, uint grade);\n\n  //Functions\n  function addCourse(uint id, string name) public onlyOwner {\n    uint blockNumber = block.number;\n\n    Course memory course = Courses[id];\n\n    require(course.id == 0 && bytes(course.name).length == 0);\n\n    Course memory newCourse = Course(blockNumber, id, name);\n\n    Courses[id] = newCourse;\n    CoursesList.push(newCourse);\n\n    emit AddCourse(blockNumber, id, name);\n  }\n\n\n  function addStudent(uint id, string firstName, string lastName, string career, string birthDate) public onlyOwner {\n    uint blockNumber = block.number;\n\n    Student memory student = Students[id];\n\n    require(student.id == 0 && bytes(student.firstName).length == 0);\n\n    Student memory newStudent = Student(blockNumber, id, firstName, lastName, career, birthDate, new uint[](0));\n\n    Students[id] = newStudent;\n    StudentsList.push(newStudent);\n\n    emit AddStudent(blockNumber, id, firstName, lastName, career, birthDate);\n  }\n\n  function addGrade(uint studentId, uint courseId, uint courseGrade) public onlyOwner {\n    Student storage student = Students[studentId];\n\n    require(student.id != 0 && bytes(student.firstName).length != 0);\n\n    Course memory course = Courses[courseId];\n\n    require(course.id != 0 && bytes(course.name).length != 0);\n\n    uint grade = student.Grades[courseId];\n\n    require(grade == 0);\n\n    student.CoursesList.push(courseId);\n\n    student.Grades[courseId] = courseGrade;\n    student.BlockNumbers[courseId] = block.number;\n\n    emit AddGrade(block.number, studentId, courseId, courseGrade);\n  }\n\n  function getStudentById(uint id) public view returns (uint, uint, string, string, string, string) {\n    Student memory student = Students[id];\n    return(student.blockNumber, student.id, student.firstName, student.lastName, student.career, student.birthDate);\n  }\n\n  function getStudentByPosition(uint position) public view returns (uint, uint, string, string, string, string) {\n    uint size = StudentsList.length;\n\n    require(position >= 0 && position < size);\n\n    Student memory student = StudentsList[position];\n\n    return(student.blockNumber, student.id, student.firstName, student.lastName, student.career, student.birthDate);\n  }\n\n  function getCourseById(uint id) public view returns (uint, uint, string) {\n    Course memory course = Courses[id];\n    return(course.blockNumber, course.id, course.name);\n  }\n\n  function getCourseByPosition(uint position) public view returns (uint, uint, string) {\n    uint size = CoursesList.length;\n\n    require(position >= 0 && position < size);\n\n    Course memory course = CoursesList[position];\n\n    return(course.blockNumber, course.id, course.name);\n  }\n\n  function getStudentGradesById(uint studentId) public view returns (uint[] blockNumbers, uint[] course, uint[] grade) {\n    Student storage student = Students[studentId];\n\n    require(student.id != 0);\n\n    uint size = student.CoursesList.length;\n\n    blockNumbers = new uint[](size);\n    course = new uint[](size);\n    grade = new uint[](size);\n\n    for(uint i = 0; i < size; i++){\n      uint courseId = student.CoursesList[i];\n\n      blockNumbers[i] = student.BlockNumbers[courseId];\n      course[i] = courseId;\n      grade[i] = student.Grades[courseId];\n    }\n  }\n\n  function getStudentsLength() public view returns (uint) {\n    return StudentsList.length;\n  }\n\n  function getCoursesLength() public view returns (uint) {\n    return CoursesList.length;\n  }\n}\n",
  "sourcePath": "/home/titus/Documents/Projects/gradechain-api/app/Contracts/contracts/GradeChain.sol",
  "compiler": {
    "name": "solc",
    "version": "0.4.25+commit.59dbf8f1.Emscripten.clang"
  },
  "schemaVersion": "3.0.6",
  "updatedAt": "2019-07-30T04:52:36.619Z",
  "devdoc": {
    "methods": {
      "isOwner()": {
        "return": "true if `msg.sender` is the owner of the contract."
      },
      "owner()": {
        "return": "the address of the owner."
      },
      "transferOwnership(address)": {
        "details": "Allows the current owner to transfer control of the contract to a newOwner.",
        "params": {
          "newOwner": "The address to transfer ownership to."
        }
      }
    },
    "title": "GradeChain"
  },
  "userdoc": {
    "methods": {}
  }
}